:020000040800F2
:1000000028340120E90200084105000839050008EC
:100010003D05000833050008CD060008000000007B
:10002000000000000000000000000000290200089D
:1000300037050008000000008502000831060008AE
:100040000303000803030008030300080303000878
:100050000303000803030008030300080303000868
:100060000303000803030008030300080303000858
:100070000303000803030008030300080303000848
:100080000303000803030008030300080303000838
:100090000303000803030008030300080303000828
:1000A0000303000803030008030300080303000818
:1000B0000303000803030008030300080303000808
:1000C00003030008030300080303000803030008F8
:1000D00003030008030300080303000803030008E8
:1000E00003030008030300080303000803030008D8
:1000F00003030008030300080303000803030008C8
:1001000003030008030300080303000803030008B7
:1001100003030008030300080303000803030008A7
:100120000303000803030008030300080303000897
:100130000303000803030008030300080303000887
:100140000303000803030008030300080303000877
:100150000303000803030008030300080303000867
:100160000303000803030008030300080303000857
:100170000303000803030008030300080303000847
:10018000030300080303000800F002F800F03CF845
:100190000AA090E8000C82448344AAF10107DA45E2
:1001A00001D100F031F8AFF2090EBAE80F0013F0F8
:1001B000010F18BFFB1A43F0010318473422000057
:1001C00054220000103A24BF78C878C1FAD85207E8
:1001D00024BF30C830C144BF04680C6070470000C1
:1001E0000023002400250026103A28BF78C1FBD840
:1001F000520728BF30C148BF0B6070471FB502F0DF
:10020000F1F81FBD10B510BD00F059F91146FFF708
:10021000F5FF00F05DFA00F077F903B4FFF7F2FFA5
:1002200003BC00F07FF900002C4B19680868B0E8A7
:10023000F04F80F30988BFF36F8F4FF0000080F319
:10024000118870470000000008480068006880F3CB
:1002500008884FF0000080F3148862B661B6BFF3DF
:100260004F8FBFF36F8F00DF00BF00BF08ED00E0CE
:10027000DFF80C00016841F470010160704700BFB5
:1002800088ED00E0EFF30980BFF36F8F134B1A681E
:100290001EF0100F08BF20ED108A20E9F04F10600B
:1002A00009B44FF0500080F31188BFF34F8FBFF3B4
:1002B0006F8F01F01BFA4FF0000080F3118809BC2A
:1002C00019680868B0E8F04F1EF0100F08BFB0ECD6
:1002D000108A80F30988BFF36F8F704714000020E5
:1002E000EFF3058070470000094880470948004740
:1002F000FEE7FEE7FEE7FEE7FEE7FEE7FEE7FEE7D6
:10030000FEE7FEE704480549054A064B7047000032
:100310006506000889010008282E012028340120E4
:100320002830012028300120032A40F2308010F0CC
:10033000030C00F0158011F8013BBCF1020F624480
:1003400098BF11F801CB00F8013B38BF11F8013B11
:10035000A2F1040298BF00F801CB38BF00F8013BBE
:1003600011F0030300F05780083AC0F0088051F8FC
:10037000043B083A51F804CBA0E80810F5E7121D39
:100380005CBF51F8043B40F8043BAFF30080D20758
:1003900024BF11F8013B11F801CB48BF11F8012B24
:1003A00024BF00F8013B00F801CB48BF00F8012B47
:1003B000704702F0FF0343EA032242EA024200F0E0
:1003C0005EB84FF0000200B51346944696462039B9
:1003D00022BFA0E80C50A0E80C50B1F12001BFF4FE
:1003E000F7AF090728BFA0E80C5048BF0CC05DF864
:1003F00004EB890028BF40F8042B08BF704748BFB2
:1004000020F8022B11F0804F18BF00F8012B704725
:1004100070477047704710B5203AC0F00B80B1E8C4
:100420001850203AA0E81850B1E81850A0E8185029
:10043000BFF4F5AF5FEA027C24BFB1E81850A0E832
:10044000185044BF18C918C0BDE810405FEA827C4C
:1004500024BF51F8043B40F8043B08BF7047D20763
:1004600028BF31F8023B48BF11F8012B28BF20F804
:10047000023B48BF00F8012B70474FF000020429EF
:10048000C0F0128010F0030C3FF49DAFCCF1040CCF
:10049000BCF1020F18BF00F8012BA8BF20F8022BF7
:1004A000A1EB0C01FFF78FBF5FEAC17C24BF00F80E
:1004B000012B00F8012B48BF00F8012B704775464F
:1004C00000F02CF8AE4605006946534620F00700C0
:1004D000854618B020B5FFF715FFBDE820404FF066
:1004E00000064FF000074FF000084FF0000B21F01E
:1004F0000701AC46ACE8C009ACE8C009ACE8C009EB
:10050000ACE8C0098D46704710B50446AFF30080D3
:100510002046BDE81040FFF780BE0000004870474D
:10052000C42D012001491820ABBEFEE726000200C1
:10053000704700BFFEE7704700BFFEE700BFFEE761
:10054000704700000CB5002001900090344800680E
:1005500040F480303249086000BF3148006800F440
:10056000003000900198401C0190009818B9019843
:10057000B0F5A04FF1D12A48006800F4003010B166
:100580000120009001E0002000900098012846D151
:1005900023484030006840F08050214940310860D5
:1005A0002048006840F440401E4908601C4808305C
:1005B00000681B49083108600846006840F40040A4
:1005C00008600846006840F4A05008601648091FFB
:1005D0000860081F006840F08070091F086000BFB5
:1005E0000F48006800F000700028F9D040F2057054
:1005F0000E4908600A480830006820F003000849E6
:10060000083108600846006840F00200086000BF3A
:1006100003480830006800F00C000828F8D10CBD31
:10062000003802400070004008544007003C02407F
:1006300010B500BF502080F31188BFF34F8FBFF378
:100640006F8F00BF01F090FC18B14FF0805004494B
:10065000086000BF002080F3118800BF10BD0000BB
:1006600004ED00E010B51548006840F4700013492F
:1006700008601348006840F001001149086000203C
:100680000F49083108600E4800680E4908400C49BF
:1006900008600D48091D0860081F006820F48020CC
:1006A000091F0860002006490C310860FFF74AFF67
:1006B0004FF0006001498039086010BD88ED00E00E
:1006C00000380240FFFFF6FE1030002400BFFEE7B6
:1006D0001CB5FFF7C7FF0020012103468022CDE9AA
:1006E000001005A1064801F0F9FB00F0A9FF01E0A8
:1006F00000201CBDFCE700005461736B310000005A
:100700003F1500082DE9F04105460E461C480768D4
:100710001C480068001D00F0A3FD50B9194800688E
:1007200090F82C1001208840174909688143164829
:100730000160681C38B936B112480168091D1348B8
:1007400000F0CCFD1AE07C190E4800684460BC4201
:1007500007D20C480168091D0D48006800F0A4FD8F
:100760000CE008480168091D0A48006800F09CFD7B
:1007700009480068844201D207480460BDE8F0815E
:1007800028000020140000202C00002088010020F8
:100790001C000020180000204400002010B5044672
:1007A00000F0A8FD24480068401C23490860234845
:1007B000006840B9214804600846006801280DD14E
:1007C00000F0D6F90AE01E48006838B91B480068F6
:1007D000C06AE16A884201D8184804601948006874
:1007E000401C1849086008460068206494F82C10E2
:1007F0000120884014490968084313490860E16AE8
:1008000001EB8101114A02EB8100211D00F066FD20
:1008100000F09AFD0A48006868B108480068C06A9C
:10082000E16A884207D24FF0805009490860BFF35F
:100830004F8FBFF36F8F10BD2400002014000020E5
:1008400030000020400000202C000020D4000020B8
:1008500004ED00E010B500F04DFD10480068D0B97F
:100860000F4800F011FD0F4800F00EFD0C480E4936
:1008700008600C480D49086000220C210A2001F094
:100880002FF8064908600846006820B108A103480F
:10089000006800F019FE00F057FD10BD5C0000205C
:1008A0009C010020B00100205400002058000020CE
:1008B000546D72510000000010B516E000F01AFDF2
:1008C0000C48C068C468201D00F0CAFC0A480068D3
:1008D000401E0949086009480068401E0749086031
:1008E00000F032FD204600F05FF804480068002860
:1008F000E4D110BD7401002024000020200000205D
:1009000070B504460D46206C70B1216CE06801445E
:10091000E160D4E90210884201D32168E1602846F1
:10092000226CE168FFF700FD70BD2DE9F04104463F
:100930000F4615464FF00008A66B206C48B920689A
:1009400000282CD1A06801F0B3FB80460020A060F5
:1009500025E07DB93946226C6068FFF7E5FC216C23
:10096000606808446060D4E90101884217D32068B8
:10097000606014E03946226CE068FFF7D5FC216C1A
:10098000E068411AE1602168E068884203D2216C86
:10099000A068411AE160022D01D106B1761E701CDB
:1009A000A0634046BDE8F08110B50446206B00F01E
:1009B000E9FC204600F0E6FC10BD00000146084AB4
:1009C000126812680AB9012200E000220A600A686F
:1009D00022B9034A1268D268106800E0002070470C
:1009E0005400002030B54FF49633174800F0070448
:1009F0002CB1C01D20F00700134C041B1B1B02462A
:100A0000124C22600024114D6C60D018083820F080
:100A100007000F4C206000240D4D2D686C600C4DBC
:100A20002D682C601146441A4C60094C24680C60F7
:100A3000084D4C682C60084D4C682C604FF0004409
:100A4000064D2C6030BD0000C4010020680000206D
:100A50007000002078000020740000208400002036
:100A600000BFFFF729FF064800680128F9D94FF0B9
:100A7000805004490860BFF34F8FBFF36F8FF0E7DA
:100A8000D400002004ED00E02DE9F04106460D46BB
:100A900017469846069C0DB9246000E02760E6637F
:100AA00025640121204600F06DFF84F84C80BDE8EC
:100AB000F0812DE9F05F82460E4690469B460A9FE4
:100AC0000C9C4FEA8801A522206BFFF772FCA8F16D
:100AD0000100216B01EB800929F0070909F00700EB
:100AE00008B9012000E0002050B900BF502080F379
:100AF0001188BFF34F8FBFF36F8F00BF00BFFEE7BA
:100B000086B1002507E0715D04F134004155705D48
:100B100000B902E06D1C0A2DF5D300BF00213D2075
:100B2000015502E0002084F83400052F00D304278B
:100B3000E762A7640020E064201D00F0B2FB04F12E
:100B4000180000F0AEFB2461C7F10500A0616462EB
:100B50000020206584F854005A465146484600F06B
:100B600069FB20600B9808B10B980460BDE8F09F0A
:100B700010B5002407E004EB84010F4A02EB81006A
:100B800000F082FB641C052CF5D30C4800F07CFBC4
:100B90000B4800F079FB0B4800F076FB0A4800F0A8
:100BA00073FB0A4800F070FB0448094908600448D8
:100BB0000849086010BD0000D40000203801002062
:100BC0004C010020600100207401002088010020F9
:100BD000180000201C00002010B50146164800E057
:100BE000006803688B42FBD30246436813448B4280
:100BF00004D143684C682344436001460A464B686D
:100C000013440468A34211D10C4C03682468A34226
:100C100008D04B680468646823444B6003681B6811
:100C20000B6005E0054B1B680B6001E003680B607F
:100C3000884200D0016010BD6800002070000020D4
:100C40002DE9F04104460D4616461F464FF00008B8
:100C500065602461B5420CD8F01BA169884202D3BB
:100C60004FF0010811E0211D0948006800F01CFB4D
:100C70000BE0BE4204D2BD4202D34FF0010804E0B3
:100C8000211D0448006800F00FFB4046BDE8F081DC
:100C9000580000205400002070B5054600F02AFBE3
:100CA000A86B08B9012400E0002400F04DFB2046A9
:100CB00070BD70B5054600F01DFBA86BE96B88425E
:100CC00001D1012400E0002400F03EFB204670BD6D
:100CD000F8B505460F461A480068C068C468201D6C
:100CE00000F0BEFA94F8280000F00400E8B1A06912
:100CF00041192B463A462046FFF7A2FFD8B1002003
:100D000003462A4601460090204601F029FB06468C
:100D100056B900BF502080F31188BFF34F8FBFF347
:100D20006F8F00BF00BFFEE705E094F8280020F0B9
:100D3000010084F828002046216A8847F8BD000099
:100D40005400002070B586B08BE003980028FBDBD0
:100D5000059C606908B9012000E0002010B9201D41
:100D600000F07EFA02A800F0DBF8054603980A2896
:100D700075D2DFE800F009050739416306083A42F9
:100D800000BF00BF00BF00BF94F8280040F0010082
:100D900084F828000498A269811803462A46204650
:100DA000FFF74EFFF8B12046216A884794F82800E3
:100DB00000F00400B8B1002000900498A169421826
:100DC00000231946204601F0CBFA064656B900BF6B
:100DD000502080F31188BFF34F8FBFF36F8F00BF98
:100DE00000BFFEE700BF3BE000BF94F8280020F002
:100DF000010084F8280033E000BF94F8280040F098
:100E0000010084F828000498A061A06908B10120BD
:100E100000E0002050B900BF502080F31188BFF3DC
:100E20004F8FBFF36F8F00BF00BFFEE7A06941196E
:100E30002B462A462046FFF703FF11E094F82800CE
:100E400000F0020018B9204600F09CFA05E094F882
:100E5000280020F0010084F8280001E0FFE700BF2F
:100E600000BF002203A90448006800F03BFF0028EF
:100E70007FF46BAF06B070BD5C000020F8B505468E
:100E80000C4600F02BFC684600F04AF80646009835
:100E900020BB44B9B54206D801F0B4F93146284622
:100EA000FFF716FF1CE03CB10E480068006808B967
:100EB000012000E000200446A91B22460A480068E1
:100EC00000F018FB01F09EF950B94FF0805007492F
:100ED0000860BFF34F8FBFF36F8F01E001F092F90D
:100EE000F8BD0000580000205C00002004ED00E088
:100EF00009480068006808B9012000E0002020B11E
:100F00004FF0FF300549086005E003480068C068FD
:100F10000068024908607047180000204400002063
:100F200070B5044601F01AF8054607480068854286
:100F300004D200F00BF80120206001E000202060C6
:100F400001480560284670BD640000202DE9F84383
:100F500034E025480068C068056823480068C06818
:100F6000C468201D00F07CF92046216A884794F867
:100F7000280000F0040008B3A0694619AE4207D962
:100F800066602461211D1848006800F08DF915E0A5
:100F9000002003462A4601460090204601F0E0F971
:100FA000074657B900BF502080F31188BFF34F8F19
:100FB000BFF36F8F00BF00BFFEE700BF0A480068A5
:100FC000006808B9012000E000200028C1D00648D0
:100FD000D0F8008005480068034908600348C0F85D
:100FE0000080BDE8F8830000540000205800002075
:100FF0000E480068401C08B9012000E0002050B9EC
:1010000000BF502080F31188BFF34F8FBFF36F8F65
:1010100000BF00BFFEE700BF502080F31188BFF380
:101020004F8FBFF36F8F00BF00BFFEE78800002027
:1010300008B500BF6846FFF7C1FC0446204600998A
:10104000FFF71CFFFFF77EFEF4E770B5044600F0E3
:1010500051F994F9455010E0606A08B9012000E0A8
:10106000002038B904F1240001F080F818B100F034
:10107000A5FA00E003E0681E45B2002DECDC00BFDD
:10108000FF2084F8450000F05FF900F033F994F98F
:10109000445010E0206908B9012000E0002048B960
:1010A00004F1100001F062F808B100F087FA681E40
:1010B00045B200E001E0002DECDC00BFFF2084F829
:1010C000440000F041F970BD2DE9F04104464FF0B5
:1010D000000800F003FB5148006808B9FFF782FCE4
:1010E0004F480068204000287ED13CB304F108003E
:1010F000A04223D9083404F0070000B304F007002D
:10110000C0F108002044A04216D904F00700C0F145
:101110000800044404F0070008B9012000E00020A2
:1011200068B900BF502080F31188BFF34F8FBFF321
:101130006F8F00BF00BFFEE7002400E00024002CFA
:1011400054D038480068844250D8374E304605683D
:1011500001E02E462D686868A04202D22868002867
:10116000F7D12E480068854240D0306800F1080869
:10117000286830606868001B102819D92F1907F0FB
:10118000070008B9012000E0002050B900BF50203E
:1011900080F31188BFF34F8FBFF36F8F00BF00BF85
:1011A000FEE76868001B78606C603846FFF714FD46
:1011B0001C4968680968081A1A49086008460068E6
:1011C0001A490968884203D216480068174908601E
:1011D000134968680968084368600020286014485B
:1011E0000068401C124900E000E0086001F00AF8C5
:1011F00008F0070008B9012000E0002050B900BF46
:10120000502080F31188BFF34F8FBFF36F8F00BF63
:1012100000BFFEE74046BDE8F081000070000020FE
:101220008400002074000020680000207800002066
:101230007C000020001F4FF080730360001F21F02E
:1012400001030360001F054B036014380260001F98
:101250006FF002030360203870470000F10F0008B0
:1012600001460A69D1E901309860D1E9010358606B
:101270005068884201D18868506000200861106879
:10128000401E10601068704700F1080141604FF087
:10129000FF31816000F10801C1600161002101603E
:1012A000704700210161704710B502460B685C1C55
:1012B0000CB9106907E002F1080000E040684468DA
:1012C00024689C42FAD944684C604C68A1608860EC
:1012D00041600A611468641C146010BD42684A6071
:1012E00093688B60936859609160086103685B1C28
:1012F0000360704700BF502080F31188BFF34F8F09
:10130000BFF36F8F00BF0E480068401C0C49086097
:1013100008460068012812D10A480068C0B208B91E
:10132000012000E0002050B900BF502080F3118858
:10133000BFF34F8FBFF36F8F00BF00BFFEE7704753
:101340008800002004ED00E00D48006850B900BF9F
:10135000502080F31188BFF34F8FBFF36F8F00BF12
:1013600000BFFEE706480068401E054908600846C1
:10137000006820B9002080F3118800BF00BF7047CB
:101380008800002070B506463546002E44D0083D42
:101390002C46224960680968084008B1012000E035
:1013A000002050B900BF502080F31188BFF34F8F49
:1013B000BFF36F8F00BF00BFFEE7206808B90120B0
:1013C00000E0002050B900BF502080F31188BFF327
:1013D0004F8FBFF36F8F00BF00BFFEE70F496068FC
:1013E00009680840C0B12068B0B90C496068096854
:1013F0008843606000F072F9094960680968084430
:10140000074908602046FFF7E7FB06480068401CD4
:101410000449086000F0F6FE70BD00008400002062
:10142000740000208000002000204FF0E0210861BF
:101430008861064800684FF47A71B0FBF1F0401EF5
:101440004FF0E0214861072008617047000000204C
:1014500070B5FEF745FF0446102C16D304F1E020CA
:1014600090F8F05315480078854201DB012000E038
:10147000002050B900BF502080F31188BFF34F8F78
:10148000BFF36F8F00BF00BFFEE70D48006800F498
:10149000E0600C490968884201D8012000E0002082
:1014A00050B900BF502080F31188BFF34F8FBFF3B6
:1014B0006F8F00BF00BFFEE770BD00008C000020F2
:1014C0000CED00E090000020024600200BE0084BED
:1014D00053F8303033B9064B43F8301003EBC003F8
:1014E0005A6002E0401C0828F1D300BF704700009A
:1014F000940000202DE9F04105460E4617462C4683
:10150000FFF7F8FE94F94400401C10B9002084F85D
:10151000440094F94500401C10B9002084F84500AF
:10152000FFF712FFA06B28B93A46314604F12400B8
:1015300000F066F82046FFF788FDBDE8F08100BFA7
:101540000A2000F001F8FBE770B504460025D4B18D
:101550001248006808B9012000E0002050B900BF1F
:10156000502080F31188BFF34F8FBFF36F8F00BF00
:1015700000BFFEE700F0B2F800212046FFF7C2F8F6
:1015800000F040FE05463DB94FF080500449086028
:10159000BFF34F8FBFF36F8F70BD0000500000206E
:1015A00004ED00E0034909680160034909684160EE
:1015B000704700003C000020280000200120014965
:1015C000086070473800002070B504460D4654B9D5
:1015D00000BF502080F31188BFF34F8FBFF36F8F90
:1015E00000BF00BFFEE70548016818312046FFF73D
:1015F0005BFE01212846FFF785F870BD140000202E
:1016000070B505460E46144655B900BF502080F30C
:101610001188BFF34F8FBFF36F8F00BF00BFFEE78E
:101620000648016818312846FFF758FE0CB14FF004
:10163000FF3621463046FFF765F870BD14000020E4
:101640001CB51E4800210B468222CDE900101CA1CA
:101650001D4800F043FC0446012C02D100F054FE6A
:101660000446012C15D100BF502080F31188BFF330
:101670004F8FBFF36F8F00BF4FF0FF3013490860EB
:1016800001201349086000201249086000F074F836
:1016900010E0601C08B1012000E0002050B900BF3C
:1016A000502080F31188BFF34F8FBFF36F8F00BFBF
:1016B00000BFFEE7084800681CBD0000480000208D
:1016C00049444C4500000000610A00084400002025
:1016D00030000020280000204C0000200248006854
:1016E000401C014908607047500000201D480068F8
:1016F00018B101201C49086032E000201A49086036
:101700001A480068B0FA80F0C0F11F0101EB8100B7
:10171000174A52F8200008B1012000E0002050B91B
:1017200000BF502080F31188BFF34F8FBFF36F8F3E
:1017300000BF00BFFEE701EB81020D4B03EB82000F
:1017400042685268426000F108024368934202D145
:101750004268526842604268D268064B1A6000BF15
:101760007047000050000020380000202C000020AE
:10177000D4000020140000201CB5524800685249D3
:10178000884201D0012000E0002050B900BF502065
:1017900080F31188BFF34F8FBFF36F8F00BF00BF7F
:1017A000FEE7484800684849491E884201D00120A8
:1017B00000E0002050B900BF502080F31188BFF333
:1017C0004F8FBFF36F8F00BF00BFFEE73F49084652
:1017D00000780190FF200A461070084600780090BB
:1017E0009DF8000000F0F0009DF80020904201D12B
:1017F000012000E0002050B900BF502080F3118884
:10180000BFF34F8FBFF36F8F00BF00BFFEE79DF8A0
:10181000000000F050002E4A107007202D4A106082
:1018200009E02C480068401E2A4A10609DF800001C
:101830004006000E00909DF8000000F08000802817
:10184000EFD024480068C0F10700042801D101202E
:1018500000E0002050B900BF502080F31188BFF392
:101860004F8FBFF36F8F00BF00BFFEE719480068BE
:101870000002184A10601046008800F4E060106012
:10188000124A019810700F482030006840F4700030
:101890000C49203108600846006840F0704008603C
:1018A000FFF7C2FD00200C490860FEF7E1FC0B4881
:1018B000006840F0404009490860FEF7C5FC002080
:1018C0001CBD000000ED00E071C20F4100E400E02B
:1018D0008C000020900000208800002034EF00E001
:1018E0002DE9F84306460F4690460EB1012000E070
:1018F000002050B900BF502080F31188BFF34F8FF4
:10190000BFF36F8F00BF00BFFEE706FB07F51FB1F7
:10191000B5FBF7F0B04201D1012000E0002050B942
:1019200000BF502080F31188BFF34F8FBFF36F8F3C
:1019300000BF00BFFEE705F15000A84201D9012019
:1019400000E0002050B900BF502080F31188BFF3A1
:101950004F8FBFF36F8F00BF00BFFEE705F1500050
:10196000FFF7B2FB04464CB1A14609F150094346CA
:101970004A46394630460094FFF786F82046BDE8CF
:10198000F883000070B505460E462C4654B900BFDA
:10199000502080F31188BFF34F8FBFF36F8F00BFCC
:1019A00000BFFEE7FFF7A6FCD4E90F12206801FB99
:1019B0000200A0600020A06320686060E06B401E11
:1019C000226C216800FB0211E160FF2084F84400D2
:1019D00084F845009EB9206908B9012000E0002084
:1019E000A8B904F1100000F0C1FB80B14FF08050A5
:1019F00009490860BFF34F8FBFF36F8F07E004F111
:101A00001000FFF741FC04F12400FFF73DFCFFF755
:101A10009BFC012070BD000004ED00E02DE9FF43B8
:101A200083B0064688461D464FF00009344654B937
:101A300000BF502080F31188BFF34F8FBFF36F8F2B
:101A400000BF00BFFEE7B8F1000F01D1206C08B95C
:101A5000012000E0002050B900BF502080F3118821
:101A6000BFF34F8FBFF36F8F00BF00BFFEE7022DA4
:101A700002D1E06B012801D1012000E0002050B923
:101A800000BF502080F31188BFF34F8FBFF36F8FDB
:101A900000BF00BFFEE700F051FA08B9059808B989
:101AA000012000E0002050B900BF502080F31188D1
:101AB000BFF34F8FBFF36F8F00BF00BFFEE700BFC4
:101AC000FFF718FCA06BE16B884201D3022D28D1EF
:101AD0002A4641462046FEF728FF0746606A08B9B5
:101AE000012000E0002068B904F1240000F03EFB72
:101AF00088B14FF0805032490860BFF34F8FBFF379
:101B00006F8F08E03FB14FF080502D490860BFF360
:101B10004F8FBFF36F8FFFF717FC012007B0BDE8B1
:101B2000F083059818B9FFF70FFC0020F6E7B9F12C
:101B3000000F04D101A8FFF735FD4FF00109FFF7B1
:101B400003FCFFF7CBFDFFF7D5FB94F94400401CE5
:101B500010B9002084F8440094F94500401C10B9E5
:101B6000002084F84500FFF7EFFB05A901A800F06D
:101B70006DF9F0B92046FFF79CF8A0B104F1100010
:101B80000599FFF721FD2046FFF75FFA00F03AFBC9
:101B9000002895D14FF0805009490860BFF34F8F5E
:101BA000BFF36F8F8CE72046FFF74FFA00F02AFB58
:101BB00086E72046FFF749FA00F024FB0020ADE756
:101BC00004ED00E02DE9F84F07468B4690461E468F
:101BD0003C4654B900BF502080F31188BFF34F8FAB
:101BE000BFF36F8F00BF00BFFEE7BBF1000F01D155
:101BF000206C08B9012000E0002050B900BF50203F
:101C000080F31188BFF34F8FBFF36F8F00BF00BF0A
:101C1000FEE7022E02D1E06B012801D1012000E095
:101C2000002050B900BF502080F31188BFF34F8FC0
:101C3000BFF36F8F00BF00BFFEE7FFF709FC00BFD7
:101C40005021EFF3118081F31188BFF34F8FBFF361
:101C50006F8F00BF0546A06BE16B884201D3022E57
:101C600037D194F945A0A06B0090324659462046E2
:101C7000FEF75BFE0AF1010088B9606A08B901202D
:101C800000E0002050B904F1240000F06FFA28B100
:101C9000B8F1000F02D00120C8F8000016E0BAF138
:101CA0007F0F01D0012000E0002050B900BF50207C
:101CB00080F31188BFF34F8FBFF36F8F00BF00BF5A
:101CC000FEE70AF1010040B284F845004FF0010937
:101CD00001E04FF0000900BF85F3118800BF4846BE
:101CE000BDE8F88F2DE9F74183B005460E464FF069
:101CF00000082C4654B900BF502080F31188BFF370
:101D00004F8FBFF36F8F00BF00BFFEE70EB9206C8F
:101D100008B9012000E0002050B900BF502080F336
:101D20001188BFF34F8FBFF36F8F00BF00BFFEE777
:101D300000F004F908B9059808B9012000E0002076
:101D400050B900BF502080F31188BFF34F8FBFF30D
:101D50006F8F00BF00BFFEE700BFFFF7CBFAA76B96
:101D6000F7B131462046FEF7CBFD781EA06320690F
:101D700008B9012000E0002060B904F1100000F073
:101D8000F5F938B14FF080502F490860BFF34F8FFD
:101D9000BFF36F8FFFF7D8FA012006B0BDE8F081DE
:101DA000059818B9FFF7D0FA0020F6E7B8F1000F50
:101DB00004D101A8FFF7F6FB4FF00108FFF7C4FAC2
:101DC000FFF78CFCFFF796FA94F94400401C10B919
:101DD000002084F8440094F94500401C10B900200C
:101DE00084F84500FFF7B0FA05A901A800F02EF825
:101DF000F0B92046FEF750FFA0B104F12400059988
:101E0000FFF7E2FB2046FFF720F900F0FBF900287E
:101E1000A3D14FF080500C490860BFF34F8FBFF340
:101E20006F8F9AE72046FFF710F900F0EBF994E77F
:101E30002046FFF70AF900F0E5F92046FEF72CFFEF
:101E400000288AD00020A8E704ED00E070B5054620
:101E50000C4655B900BF502080F31188BFF34F8F57
:101E6000BFF36F8F00BF00BFFEE754B900BF502023
:101E700080F31188BFF34F8FBFF36F8F00BF00BF98
:101E8000FEE7FFF737FA134802686868131A2068FC
:101E9000401C08B9002619E00F49286809688842E3
:101EA00006D06868904203D80126002020600DE02B
:101EB0002068984207D92068C01A20602846FFF79A
:101EC00071FB002602E0002020600126FFF73CFAAB
:101ED000304670BD280000203C0000202DE9FF4F57
:101EE00085B0804689461746DDE912ABB800FFF79A
:101EF000EBF8064656B15820FFF7E6F804460CB159
:101F0000266304E03046FFF73DFA00E000247CB190
:101F10000020CDE900ABCDE902403A4649464046B3
:101F2000089BFEF7C6FD2046FEF738FC012501E0C0
:101F30004FF0FF35284609B0BDE8F08F0549096824
:101F400009B9012005E00449096809B9022000E047
:101F50000020704730000020500000200149086830
:101F600070470000280000202DE9F0414FF00008E4
:101F70004448006800287CD143480068451C42481A
:101F8000056015BB41480068006808B9012000E001
:101F9000002050B900BF502080F31188BFF34F8F4D
:101FA000BFF36F8F00BF00BFFEE7384807683848AF
:101FB0000068364908603648076036480068401CAB
:101FC00034490860FEF794FF00BF3348006885423B
:101FD0003CD300BF2D480068006808B9012000E02C
:101FE000002020B14FF0FF302B4908602DE027483A
:101FF0000068C068C4686668B54202D226480660B8
:1020000023E0201DFFF72CF9A06A18B104F1180095
:10201000FFF726F994F82C10012088401F49096821
:1020200008431E490860E16A01EB81011C4A02EB8A
:102030008100211DFFF752F91A49E06A0968C96A4F
:102040008842C7D34FF00108C4E700BF15480068B5
:10205000C06A00EB8000124951F82000012801D924
:102060004FF001081048006808B14FF0010805E082
:10207000FFE70E480068401C0C4908604046BDE878
:10208000F0810000500000202800002018000020EF
:102090001C0000203C000020440000202C000020F8
:1020A000D40000201400002038000020340000205C
:1020B00070B505462C460026002D4ED028480068F5
:1020C000844201D1012000E0002050B900BF50201F
:1020D00080F31188BFF34F8FBFF36F8F00BF00BF36
:1020E000FEE7E06C50B900BF502080F31188BFF3C9
:1020F0004F8FBFF36F8F00BF00BFFEE7E06C401E45
:10210000E064A16CE06A884227D0E06C28BB201D07
:10211000FFF7A6F840B994F82C1001208840114927
:10212000096881430F480160A06CE062E06AC0F179
:102130000500A06194F82C10012088400949096825
:10214000084308490860E16A01EB8101064A02EB95
:102150008100211DFFF7C2F80126304670BD000046
:10216000140000202C000020D400002070B506468A
:10217000F068C46854B900BF502080F31188BFF3E1
:102180004F8FBFF36F8F00BF00BFFEE704F1180051
:10219000FFF766F815480068A8B9201DFFF760F83A
:1021A00094F82C100120884011490968084310490F
:1021B0000860E16A01EB81010E4A02EB8100211DFA
:1021C000FFF78CF804E004F118010B48FFF786F8DC
:1021D0000A49E06A0968C96A884204D901250120D0
:1021E0000749086000E00025284670BD5000002027
:1021F0002C000020D40000206001002014000020EA
:102200003800002070B5002400263648006850B918
:1022100000BF502080F31188BFF34F8FBFF36F8F43
:1022200000BF00BFFEE7FFF765F82E480068401EBC
:102230002C4908600846006800284FD12A480068E9
:1022400000284BD024E02948C068C46804F1180075
:10225000FFF706F8201DFFF703F894F82C10012073
:10226000884023490968084321490860E16A01EB75
:102270008101204A02EB8100211DFFF72FF81E4942
:10228000E06A0968C96A884202D301201B490860D4
:102290001648006808B9012000E000200028D2D0CC
:1022A0000CB1FEF725FE1648056865B100BFFFF7C3
:1022B0005BFE10B10120114908606D1E002DF6D1A2
:1022C00000200F4908600D48006838B1012630072A
:1022D0000C490860BFF34F8FBFF36F8FFFF734F8DF
:1022E000304670BD50000020240000206001002016
:1022F0002C000020D4000020140000203800002012
:102300003400002004ED00E01CB50024FEF7A2FA22
:102310000E48006858B10E48022100234FF4827223
:10232000CDE900100BA10D48FFF7D8FD044654B9C4
:1023300000BF502080F31188BFF34F8FBFF36F8F22
:1023400000BF00BFFEE720461CBD00005C0000206F
:1023500060000020546D7220537663003110000835
:102360002DE9FE4304460D4616461F46DDF828803B
:102370004FF0000954B900BF502080F31188BFF31B
:102380004F8FBFF36F8F00BF00BFFEE71448006898
:1023900010B3009501960294062D15DAFFF7CEFDD5
:1023A000022808D10023424669460D480068FFF71D
:1023B00035FB814610E000231A466946084800684C
:1023C000FFF72CFB814607E000233A4669460448A4
:1023D0000068FFF7F7FB81464846BDE8FE83000032
:1023E0005C0000204FF04070E1EE100A70470000E2
:1023F000102400080000002094000000C401000820
:10240000A42400089400002094330100E001000897
:10241000007A030A0000000000000000010203042B
:10242000060708090000000000000000000000008E
:10243000000000000000000000000000000000009C
:10244000000000000000000000000000000000008C
:102450000000000000000000000000000400000078
:10246000000000000000000000000000000000006C
:10247000000000000000000000000000000000005C
:10248000000000000000000000000000000000004C
:102490000000000000000000AAAAAAAA0000000094
:0424A0000000000038
:040000050800018965
:00000001FF
